:100000000C94A4020C94C1020C94C1020C94C10281
:100010000C94C1020C94C1020C94C1020C94C10254
:100020000C94C1020C94C1020C948F1A0C94CB193D
:100030000C9477230C94C1020C94C1020C94C1025D
:100040000C94C1020C94C1020C94C1020C94C10224
:100050000C94C1020C941B230C94C1020C94C10299
:100060000C94C1020C94C1020C94C1020C94C10204
:100070000C94C1020C94C1020C94C1020C94C102F4
:100080000C94C1020C94C1020C94C1020C94C102E4
:100090000C94C1020C94C1020C94C1020C94C102D4
:1000A0000C94C1020C94C1020C94C102500453047C
:1000B000560459045C045F046204D80FDA0FE50F9C
:1000C000DC0FDE0FE00FE20FE40FE70FE90FEB0F9D
:1000D000F60FED0FEF0FF10FF30FF50FF80FD41030
:1000E000D410121112114E1167130E1367136E11F3
:1000F00067136B126B1278127812781278127812DA
:10010000781278127812781278127812781278129F
:100110007812781278128912B112B612BD12D51265
:10012000DC170318A3190318A3194B186E18A31989
:100130006C197F193F1F3F1F521F521F481F521F2C
:10014000521F521F3F1F3F1F4D1F521F521F4D1F57
:10015000AF25B425BE25B225B725BC25BA25076332
:100160004236B79BD8A71A39685618AEBAAB558C29
:100170001D3CB7CC5763BD6DEDFD753EF617723172
:10018000BF000000803F05A84CCDB2D44EB9383630
:10019000A9020C50B9918688083CA6AAAA2ABE00DA
:1001A0000000803F00000000000101010101010189
:1001B000010102020202020202020203030303031C
:1001C00003030304040404040405050505050606E9
:1001D00006060607070707080808080909090A0AA2
:1001E0000A0A0B0B0B0C0C0C0D0D0D0E0E0F0F0F46
:1001F00010101111111212131314141515161617CD
:1002000017181819191A1A1B1C1C1D1D1E1F1F2038
:10021000202122222324252526272728292A2B2B83
:100220002C2D2E2F2F3031323334353636373839A6
:100230003A3B3C3D3E3F4041424344464748494AA1
:100240004B4C4D4F50515253555657585A5B5C5E6C
:100250005F606263646667696A6C6D6E7071737407
:100260007678797B7C7E8081838486888A8B8D8F6B
:1002700091929496989A9B9D9FA1A3A5A7A9ABAD97
:10028000AFB1B3B5B7B9BBBDBFC1C4C6C8CACCCF87
:10029000D1D3D6D8DADCDFE1E4E6E8EBEDF0F2F535
:1002A000F7FAFCFF6801F000B40078005A0029005A
:1002B0002B002961D75C010000000100140004003C
:1002C0001D000100010001001A0016001B00E000E3
:1002D0002A000100080007000600E2002C4101008E
:1002E000150009001900E3000100010017000A00D1
:1002F00005000000010001002D0000002F0000009B
:10030000010001002E00000030000000010001008B
:100310001C000B00110000000100010018000D007E
:100320001000E300010001000C000E003600E600A2
:100330002841010012000F00370001002B000100CE
:100340001300330038000100010035003100340093
:10035000D85C010000000100010001000100010063
:10036000000001003A001E00010001000100010030
:100370003B001F0001000100010001003C002000C3
:1003800001000100010001003D0021000100010009
:10039000010001003E0022000100000001000100F8
:1003A0000100000001000000010001000100000048
:1003B00001000000010001003F00230001000000D7
:1003C00001000100400024000100010001000100C3
:1003D000410025000100010001000100420026004B
:1003E000010001000100010043002700010001009D
:1003F00001000100440001000100010000000501AE
:100400000980A10185031601002603001A81002A34
:100410008300751095018100C0050C0901A10185BB
:1004200004160100269C021A01002A9C02751095F0
:10043000018100C005010906A1018505050719E034
:1004400029E71500250195087501810205081901A4
:10045000290595057501910295017503910105071F
:10046000190029EF1500250195F075018102C005DD
:10047000010906A101050719E029E71500250195E5
:100480000875018102950175088101050819012986
:1004900005950575019102950175039101050719EF
:1004A0000029FF150026FF00950675088100C00988
:1004B000023B00020100A0FA09040000010301014F
:1004C00000092111010001224000070581030800F5
:1004D0000A090401000103000000092111010001C3
:1004E0002271000705820320000A1201100100009A
:1004F0000008EDFE071301000102030104033000B0
:10050000000016034500720067006F0044006F0092
:100510007800200045005A000000160345007200D4
:1005200067006F0044006F007800200045005A000B
:1005300000000403090400047F3F1F643214643286
:1005400014783C1E1E140A0511241FBECFEFDAE0FA
:10055000DEBFCDBF11E0A0E0B1E0EAE2F7E502C006
:1005600005900D92AE3EB107D9F723E0AEEEB1E0B3
:1005700001C01D92A536B207E1F70E94C71C0C947A
:10058000932B0C9400000895EF92FF920F931F930A
:10059000CF93DF93E901662309F44BC0242F30E0A9
:1005A000EFEFF0E0E61BF109B901E69F9001E79F4C
:1005B000300DF69F300D1124232F8B01031B1109E1
:1005C0005CE3E52EF12CB7010E942B2AFB01BC0154
:1005D000069FC001079F900D169F900D1124B70133
:1005E0000E942B2AE230F105B1F040F4309779F007
:1005F000319711F5832F242F461B21C0E430F105DC
:10060000A1F068F03597C1F4842F861B18C0832FA2
:10061000262F230F14C0862F830FE42F03C0E42F4F
:10062000E61B842F432F2E2F0AC0842F462F430F03
:1006300006C0842F242F03C080E020E040E0E42F98
:10064000F0E0EC55FE4F4491E22FF0E0EC55FE4F08
:100650009491E82FF0E0EC55FE4FE49149839883A4
:10066000EA83DF91CF911F910F91FF90EF90089552
:1006700090918F0292FF0DC0282F2871283019F415
:10068000877F846006C0282F2471243011F48B7F6B
:10069000886093FF0DC0282F2871283119F4877EB8
:1006A000846106C0282F2471243111F48B7E886167
:1006B00094FD877E0895882319F05198599A02C0B5
:1006C000519A59985098589A95E09A95F1F70000E8
:1006D000509A589895E09A95F1F70000882311F008
:1006E000519A599885E08A95F1F700000895CF93C3
:1006F000DF93D82FC8E08D2F80780E945B03DD0F39
:10070000C150C9F780E00E945B0385E08A95F1F74C
:10071000000085E08A95F1F7000080E0DF91CF913D
:100720000895AF92BF92CF92DF92EF92FF920F9314
:100730001F93CF93DF931F92CDB7DEB7F82E8B01B7
:10074000CFB6D090BC00F8942091BC002B7F2093B2
:10075000BC002BB12C7F2BB95098589A5198599ABC
:1007600085E08A95F1F700002AB12C7F2AB9E5E0EF
:10077000EA95F1F70000519A5998F5E0FA95F1F7EA
:100780000000509A589885E08A95F1F7000084E8B7
:1007900099830E947703AF2C9981B92E000F111F06
:1007A000000F111F0A0D1B1D7501E016F10631F037
:1007B000F70181917F010E947703F7CF5098589AF3
:1007C000F5E0FA95F1F700005198599A85E08A957D
:1007D000F1F70000CFBED092BC00579A8BB18F7753
:1007E0009BB190682FB7F894A016B10699F0F50167
:1007F00031915F0148E09BB9000000C037FF8BB921
:10080000330F000000C000C000C08BB900C04A9583
:1008100091F7EACF2FBF0F90DF91CF911F910F91EA
:10082000FF90EF90DF90CF90BF90AF900895CF935F
:10083000E82F873058F58091140190911501892B8C
:1008400009F042C0CE2F80E40E94751690931501E6
:1008500080931401892BB1F482E10E944E1690938B
:10086000150180931401892B69F481E090E001C0A7
:10087000880FCA95EAF780950E944E16909315014D
:100880008093140184E98093BC001EC090E0FC01B9
:100890003797E730F105C0F4EA5AFF4F0C94532A1A
:1008A000209A289811C0219A29980EC0229A2A9835
:1008B0000BC0239A2B9808C0529A5A9805C0539A95
:1008C0005B9802C03E9A4698CF910895CF93DF93EC
:1008D000873008F047C08091140190911501892B51
:1008E00009F049C080E40E94751690931501809329
:1008F0001401892B11F080E031C083E10E944E1673
:100900009093150180931401892BA9F781E40E942B
:1009100075169093150180931401892B61F784E873
:100920008093BC000E946B23EC019091BC0097FD6A
:100930000EC00E946B238C1B9D0B84369105A8F37F
:100940008EEF9FEF9093150180931401D4CF809187
:10095000BB008095109215011092140194E99093B8
:10096000BC000AC09FB18FB1807F86958695937039
:10097000892B809501C080E0DF91CF910895EF929F
:10098000FF920F931F93CF93DF93CDB7DEB7679797
:100990000FB6F894DEBF0FBECDBF4B8B5C8B6D8B5B
:1009A0007E8B8F8B0E891F8901151105C1F15F3F69
:1009B00011F44F3FA1F1E42EF12CA1E0B0E0042EA0
:1009C00001C0AA0F0A94EAF7852F90E0662319F078
:1009D0002091C10206C09C012C5C3D4FF901208191
:1009E0002A232223A9F046E0489F9001499F300D19
:1009F0001124F701E20FF31FEE0FFF1FEB5BFE4F19
:100A000040815181FC01EC5CFD4F9081A92B06C017
:100A1000FC01EC5CFD4FA0958081A823A08386E0BB
:100A2000FE013D96DF01982F1D929A95E9F74D87BB
:100A30005E876F87198B088BDE01179601900D92E8
:100A40008A95E1F7CE0107960E94561F811137C0A3
:100A500086E0FE013796DE01119601900D928A958F
:100A6000E1F7FF81E8856A857B856115710539F1BC
:100A7000EF3F11F4FF3F19F12091E80230E0C90186
:100A80000196877099274091190350E084179507C4
:100A900079F1F983EA837D836C8396E0929FD0019C
:100AA000939FB00D1124A751BD4FFE0131960190C7
:100AB0000D929A95E1F78093E8020E94352616E0A0
:100AC000809119039091E802891711F1189FC001D4
:100AD000112487519D4F0E94561F8823C9F0809191
:100AE000190390E001968770992780931903E8CF46
:100AF00010924B020E942E211092E80210921903CC
:100B0000E2EEF2E086E0DF011D928A95E9F7D7CFA9
:100B100067960FB6F894DEBF0FBECDBFDF91CF91C1
:100B20001F910F91FF90EF90089520913202309124
:100B300033028217930771F090933302809332024D
:100B4000E0919202F0919302309721F00084F185B8
:100B5000E02D0994089520913002309131028217DE
:100B6000930771F09093310280933002E0919202EA
:100B7000F0919302309721F00680F781E02D0994DF
:100B80000895E0919202F0919302309721F0019044
:100B9000F081E02D099480E008958091B90280FFF2
:100BA00006C06FE070E084EF91E00C94910380E068
:100BB00090E0FC01EC50FE4F1182108212820496EC
:100BC0008C339105B1F7EDCFEF92FF920F931F9306
:100BD000CF93DF937C01C4EFD1E000E010E0F70198
:100BE00084813091B9029091BA02073011051CF44A
:100BF000882381F002C081110DC0832F881F8827B0
:100C0000881F592F550F97FB992790F99E01409106
:100C1000BC020BC0832F881F8827881F592F550FB0
:100C200097FB992790F99E0140E06091BB02852BCC
:100C30000E94C4020F5F1F4F24960F30110579F6F2
:100C40000E94CD05F701848190E00196817099277B
:100C50008483DF91CF911F910F91FF90EF900895C2
:100C6000EF92FF920F931F93CF93DF93EC012C81B0
:100C70003D812F5F3F4F217033273D832C8384EFCD
:100C8000E82E81E0F82E10E008E7812F8695EC81B0
:100C9000FD81E80FF11DCF018170992797014091E7
:100CA000BC026091BB02FC010E9FC0010F9F900D22
:100CB00011240E94C4021F5FF4E0EF0EF11C1F30EC
:100CC00021F7DF91CF911F910F91FF90EF900C943E
:100CD000CD050F931F93CF93DF9380E090E0FC014D
:100CE000EC50FE4F11821082128204968C339105D3
:100CF000B1F7C0E0D0E00FE010E0CE01B8010E94F3
:100D00003F2AFC018091F201082E000C990BEE0F96
:100D1000FF1FEE0FFF1FC817D907FCF080911201CB
:100D2000082E000C990B8C179D07BCF09F012C50CE
:100D30003E4F8091B902881F8827881F9091BA0280
:100D4000592F550F97FB992790F94091BC0260915C
:100D5000BB02852B0E94C40205C0EC50FE4F1182DD
:100D6000108212822196CF30D10539F60E94CD052E
:100D7000809111019091F201980F9093F2012091CE
:100D80001201280F20931201121614F49E301CF049
:100D9000819580931101DF91CF911F910F9108955B
:100DA000AF92BF92CF92DF92EF92FF920F931F9379
:100DB000CF93DF93FC01828180FF03C0BB24BA94F0
:100DC00002C0BB24B39424EFE22E21E0F22E06EF02
:100DD00011E0C0E0D0E0F80131971082F7011082F5
:100DE000F801108294E0C92ED12CA12C8091F10140
:100DF0008A0D87FD815F082E000C990BC817D90753
:100E0000E9F48091BC028C9DA0018D9D500D1124B0
:100E100055954795559547958091B902881F882724
:100E2000881F9091BA02592F550F97FB992790F977
:100E300097016091BB02852B0E94C402AB0CF1E0CC
:100E4000CF1AD10899F6219684E0E80EF11C0C5FC8
:100E50001F4FCF30D10509F0BECF0E94CD05809144
:100E6000F10191E0B91206C0811102C08EE007C005
:100E7000815005C090E00196BE010E943F2A8093F8
:100E8000F101DF91CF911F910F91FF90EF90DF90D3
:100E9000CF90BF90AF900895CF92DF92EF92FF92E4
:100EA0000F931F93CF93DF93EC0184EFE82E81E043
:100EB000F82E00E010E098E6C92EDD24D3948C8152
:100EC0009D81800F911FB6010E943F2A970140919A
:100ED000BC026091BB020E94C402085E1F4F84E006
:100EE000E80EF11C083681E0180749F70E94CD058D
:100EF0008A812C813D8180FF06C0C9010196B8011D
:100F00000E943F2A05C0121613062CF087E691E0D6
:100F10009D838C8304C0215031093D832C83DF9154
:100F2000CF911F910F91FF90EF90DF90CF90089598
:100F30009091B90290FF0FC020E030E0F901EC5031
:100F4000FE4F8183608342832C5F3F4F2C333105FA
:100F5000A9F70C94CD0508950F931F93CF93DF93BA
:100F600000D000D0CDB7DEB78C018091F3018111A4
:100F70000CC09E012F5F3F4F4FEF6FEF80E090E07E
:100F80000E94C4028A818093F301F8018481813038
:100F900051F028F0823061F44091F3010AC0809151
:100FA000F30140E007C06091F30140E080E003C03E
:100FB00040E080E060E00E949807F801248130E082
:100FC000C901019663E070E00E943F2A84830F907C
:100FD0000F900F900F90DF91CF911F910F91089577
:100FE000CF93DF9300D000D0CDB7DEB72091B90208
:100FF00020FF0AC09E012F5F3F4F0E94C4024B8119
:1010000069818A810E9498070F900F900F900F902E
:10101000DF91CF910895CF93DF93EC01E9EBF2E0FC
:10102000438162818C819D810E94F0078C819D812A
:10103000019668E671E00E943F2A9D838C83DF91D0
:10104000CF910895CF93DF93EC016C8170E080E045
:1010500090E00E942C2820E030E04FE753E40E940B
:101060004F272BED3FE049E450E40E9455290E94B0
:10107000C2290E94C9272BE43AE34EE25FE30E94B3
:10108000E22620EF3BEF48ED52E40E9455290E94F2
:10109000FB27462FE9EBF2E08081881F8827881F15
:1010A0009091BA02292F220F97FB992790F962811C
:1010B000822B0E94F0072C8130E02F5F3F4F2C8362
:1010C000DF91CF9108958091B90280FF03C086958A
:1010D0008F73089580E008958091B902282F269596
:1010E0002F7330E02115310519F48178826005C035
:1010F0002532310524F0817888648093B9023091DB
:10110000B902432F441F4427441F2091BA02522F93
:10111000550F852F842B27FB992790F9893641E0BD
:1011200094077CF068E671E00E943F2A80FB37F963
:101130003093B90286952078822B90FB87F98093B3
:10114000BA020895CF93DF9300D000D0CDB7DEB7B9
:10115000AB01BC0149835A836B837C830E946C087A
:1011600049815A816B817C8188E090E00F900F90DB
:101170000F900F90DF91CF910C94C0265F926F92E9
:101180007F928F929F92AF92BF92CF92DF92EF9217
:10119000FF920F931F93CF93DF9300D000D0CDB772
:1011A000DEB78C01E62EF42E522E8091B90280FF1C
:1011B0008BC0E82FE695EF73AE2FB0E0A05EBE4F78
:1011C0009C919093BE02282F2E77223061F49E01CD
:1011D0002F5F3F4FC8010E94C4024B8169818A8101
:1011E0000E94980751C0923019F4F090BC024CC094
:1011F000963069F4881F8827881F9091BA02292F9A
:10120000220F022F082B97FB112710F93DC09930B0
:1012100089F39931C9F5E951E0FD02C021E001C02F
:101220002FEFE695F0E0EE0FFF1FEC55FD4F859197
:1012300094916FE070E00E942B2A26034001279FC3
:10124000900C1124580188E9A81A8EEFB80A94EF7F
:10125000C92E91E0D92E28E6622E77247394C50119
:10126000B3010E942B2A96014F2D6E2D0E94C402BD
:10127000A80CB91C84E0C80ED11C80E3C81682E01B
:10128000D80669F70E94CD058091B90200FB87F965
:101290008093B902902F96958091BA028078892B1D
:1012A00010FB87F98093BA02E092BB02F092BC0275
:1012B000552051F06091B9027091BA028091BB0241
:1012C0009091BC020E94A2080F900F900F900F9077
:1012D000DF91CF911F910F91FF90EF90DF90CF9012
:1012E000BF90AF909F908F907F906F905F90089588
:1012F0009091B90290FF4AC09178811102C092602A
:1013000007C0853210F0986403C08F73880F982B44
:101310009093B902662351F06091B9027091BA02BC
:101320008091BB029091BC020E94A2086091B90218
:1013300066956F7370E04BE050E086E091E00E94AC
:10134000862B892B19F01092BF0209C081E080938F
:10135000BF020E946B239093B4028093B30281E09A
:101360008093B6028091B902881F8827881F9091C8
:10137000BA02392F330F97FB992790F920E040915B
:10138000BC026091BB02832B0C94BE08089561E0FF
:101390000C9478098091B90286958F73815009F475
:1013A00084E261E00C9478098091B90286958F738C
:1013B0008F5F853208F081E061E00C947809E9EBF9
:1013C000F2E083E080831092BA028FEF82838383FE
:1013D000148260817181828193810C94A208609152
:1013E0007D028CE090E00C94AE26CF93DF9326E054
:1013F000729FF001112434E5839FE00DF11D11244B
:10140000E60FF11DEE0FFF1FE255FD4FC591D49180
:10141000CE01C238D10549F1B0F4C133D10509F488
:1014200064C048F4C932D10509F458C0CA32D105A4
:1014300009F462C068C0C533D10509F448C0C93396
:10144000D10599F060C0C33ED10541F138F4C03EEA
:10145000D10591F0C23ED105B1F055C0C63ED105CF
:1014600021F1C73ED10561F14EC020918F0220FDD0
:1014700014C221FD12C213C220918F0220FF0FC29D
:1014800089E390E00CC220918F0222FF08C2809174
:101490008F0284FDB4C183EE90E001C280918F027F
:1014A00082FFF5CF82EE90E0FAC120918F0223FFF8
:1014B000F6C180918F0284FDA2C187EE90E0EFC15A
:1014C00080918F0283FFF5CF86EE90E0E8C12091F6
:1014D0008F0225FFE4C189E290E0E1C120918F02F3
:1014E00025FFDDC185E390E0DAC120918F0226FF60
:1014F000D6C18AE290E0D3C120918F0226FFCFC1EE
:1015000081E390E0CCC1C11520E5D20708F047C0C7
:10151000C11530E4D30708F034C1C83ED10518F531
:10152000C03ED10508F0BBC1C83AD10570F4C53A38
:10153000D10508F0B0C0C130D10509F4B0C108F43C
:101540005EC1249708F45BC1AAC1CF3BD10508F462
:10155000ADC0C03CD10508F452C1FE01EE0FFF1F23
:10156000EC5DFF4F02C1C11520E2D20760F4C11546
:1015700031E0D30708F093C1C03FD10508F43FC163
:10158000CE0190658CC1C11580E3D80708F0F0C08A
:10159000FE01FF70EE0FFF1FEC55FE4FE6C0C115B8
:1015A00095E5D90708F044C0C11524E5D20708F035
:1015B00000C1C11532E5D30710F5C11581E5D80783
:1015C00008F0E3C02C2F237081E090E002C0880F68
:1015D000991F2A95E2F79C689E0174E0369527953D
:1015E0007A95E1F72370922BEC2FEF70E695E69554
:1015F00030E2E39FF00111248E2B9F2B50C18C2FE2
:1016000086958695AE0143705527C115D34508F0E0
:10161000C1C090E2899F9001112481E090E002C056
:10162000880F991F4A95E2F7822B932B9C6837C14C
:10163000C1152AE5D207A0F4C11539E5D30708F092
:10164000C6C0C11586E5D80708F4B8C0C11598E52D
:10165000D90708F4D4C09C2F8827806F906A1FC1D7
:10166000C1152BE5D20708F4CAC0CE01C1153CE56F
:10167000D30708F4C1C090568115904208F0BFC04E
:101680008D2F8F710E943803FE01FF27F0628F714A
:101690009F01382BAFC0C53AD10509F4B3C0C63A93
:1016A000D10509F0B2C082E890E4F9C0C83AD1058A
:1016B00009F4AEC0C93AD10509F4ADC0CA3AD105A2
:1016C00009F4ACC0CB3AD10509F4ABC0CC3AD10592
:1016D00009F4AAC0CB3BD10509F4A9C0CC3BD10584
:1016E00009F4A8C0CD3AD10509F4A7C0C03BD10583
:1016F00009F4A6C0CE3AD10509F4A5C0CF3AD10568
:1017000009F4A4C0C13BD10509F4A3C0C23BD10573
:1017100009F4A2C0C33BD10509F4A1C0C43BD10563
:1017200009F4A0C0C53BD10509F49FC0C63BD10553
:1017300009F49EC0C73BD10509F49DC0C83BD10543
:1017400009F49CC0C93BD10509F49BC0CD3BD10530
:1017500009F49AC0CE3BD10509F499C0CA3BD10522
:1017600009F498C080E094E49AC08591949197C060
:101770009E013327C901D3FF02C0986C90C0906CC2
:101780008EC0CE019F70906A8AC09C2F8827816F7F
:10179000906A85C090E2899F9001112481E090E0D9
:1017A00002C0880F991F4A95E2F7822B932B9A6803
:1017B00076C09C2F8827846F906A71C08C2F0E94FE
:1017C00038038F7190E0982F8827906268C08C2F23
:1017D0008F700E943803FE0194E0F695E7959A9584
:1017E000E1F7EF70F0E0FE2FEE27F06A8F70806E69
:1017F0009F01282BC90153C09927906650C080E0F3
:1018000090E04DC081E890E44AC083E890E447C08E
:1018100082EE94E444C089EE94E441C08AEE94E4FC
:101820003EC085EB94E43BC086EB94E438C083EB88
:1018300094E435C084EB94E432C087EB94E42FC089
:101840008CEC94E42CC08DEC94E429C083E895E4FE
:1018500026C08AE895E423C082E995E420C084E9A3
:1018600095E41DC081E296E41AC083E296E417C0B5
:1018700084E296E414C085E296E411C086E296E420
:101880000EC087E296E40BC08FE694E408C080E7C0
:1018900094E405C08AE296E402C080EE90E0DF9115
:1018A000CF91089580E290E0909315018093140108
:1018B0008091F001811111C01092B9008CE08093E9
:1018C000B80081E08093F0012FEF83ED90E3215089
:1018D00080409040E1F700C0000080E40E9475164F
:1018E0009093150180931401892B09F040C080E08A
:1018F0000E944E169093150180931401892BB9F51F
:1019000080E00E944E169093150180931401892B5C
:1019100071F58FE30E944E16909315018093140188
:10192000892B29F584E98093BC0080E40E94751618
:101930009093150180931401892BC9F48CE00E94C7
:101940004E169093150180931401892B81F480E049
:101950000E944E169093150180931401892B39F43F
:101960008FE30E944E16909315018093140184E931
:101970008093BC0080911401089556985E98259834
:101980002D9826982E9827982F988FEF90E0909377
:1019900089008093880090938B0080938A009093B5
:1019A0008D0080938C00259A2D9A2FEF80E792E08E
:1019B000215080409040E1F700C00000269A2E9A06
:1019C0002FEF80E792E0215080409040E1F700C087
:1019D0000000279A2F9A2FEF80E792E02150804055
:1019E0009040E1F700C0000025982D982FEF80E788
:1019F00092E0215080409040E1F700C0000026981E
:101A00002E982FEF80E792E0215080409040E1F740
:101A100000C0000027982F9856985E9825982D981A
:101A200026982E9827982F98089584B1807F84B99E
:101A300085B1807F85B98AB1837F8AB98BB1837F75
:101A40008BB93E984698089580B38C7080BB81B363
:101A5000836F81BB0895AF92BF92CF92DF92EF92D6
:101A6000FF920F931F93CF93DF9380911401909176
:101A70001501892B91F08091EF018F5F8093EF0129
:101A800081110BC00E94520C90E09093150180933D
:101A90001401892B11F40E94BD0C01E812E048E802
:101AA000E42E42E0F42E6801C0E0B12C37E0A32E12
:101AB000AC0E8C2F0E9417048A2D0E9417048C2FC5
:101AC0000E946604D6019C91981719F08C93D1E07E
:101AD00001C0D0E08A2D0E946604F701908198171A
:101AE00019F0808381E001C080E0D82BBD2A0E94DC
:101AF000150DCF5FFFEFCF1ADF0A6FEFE61AF60A78
:101B0000C730A1F60E946B236AEF70E00E942B2A77
:101B1000782F6091EE01662381F11092EE01E09141
:101B20007B02F0917C02DF01AC5ABF4FF12C2BEF0E
:101B3000E22ECAEFD0E0AF014A5F5F4F20812B3F1A
:101B400099F0C22ED12C721720F09C012C193D095E
:101B500005C09E012C193D09280F391F253031057C
:101B600014F0E08201C0F62E3196E417F50731F744
:101B7000EA17FB0701F7F092EE01BB20A1F14091BB
:101B80007B0250917C026091EE01E5E9F2E0EE24E7
:101B9000E394F12C9EE0D92EDE0ED8019D918D01AB
:101BA00080819827DA0120E030E0E701022E01C0B1
:101BB000CC0F0A94EAF7CC2EC92241F0CC90DBEF8F
:101BC000BD2ECB1003C07C938C2761E011962F5F54
:101BD0003F4F2630310549F74A5F5F4F8193DE1250
:101BE000DCCF6093EE0181E0DF91CF911F910F91E7
:101BF000FF90EF90DF90CF90BF90AF9008958F92BD
:101C00009F92AF92BF92CF92DF92EF92FF920F938B
:101C10001F93CF93DF93CDB7DEB728970FB6F89415
:101C2000DEBF0FBECDBFFC01F080118183819481A6
:101C3000892B11F40C943B161F3F29F40FEFF0167B
:101C400011F40C943B166F0185E0DE0111960190B2
:101C50000D928A95E1F7F601228189819A812223EA
:101C600049F00E94AC24082F682F89819A810E9434
:101C7000252503C00E94F824082F26E0129FF001BA
:101C8000112434E5039FE00DF11D1124EF0DF11D2A
:101C9000EE0FFF1FE255FD4F05911491F601828171
:101CA000003FFCE51F0781F1882309F4D0C0033E03
:101CB0002CE5120709F450C008F044C0013E8CE541
:101CC0001807D1F510927D020E94EF090C3CFCE54B
:101CD0001F0709F4C6C008F4F4C0043DECE51E0774
:101CE00009F474C608F0CEC6003D2CE5120709F4CD
:101CF0007AC608F09FC60E3C8CE5180709F480C62A
:101D000008F08BC6F6018281882309F4B4C781E00C
:101D100028960FB6F894DEBF0FBECDBFDF91CF91EE
:101D20001F910F91FF90EF90DF90CF90BF90AF90F9
:101D30009F908F900C94C709023E9CE5190791F47F
:101D400081E00DC0043EECE51E0741F0053EFCE5D8
:101D50001F0741F484E003C082E001C083E0809368
:101D60007D02B2CF013020E8120708F4AFCF78012E
:101D7000E894F7F880914B028093420210924B0254
:101D800080917D02813071F048F08230D9F084304A
:101D9000F9F486EE0E94C32288E118C082EE0E9408
:101DA000B22116C080EE0E94B22181EE0E94B221C3
:101DB00088E10E94C32281EE0E94562180EE0E949B
:101DC000562106C082EE0E94B22187E50E94C322FE
:101DD0008FE39CE90197F1F700C000005CE0A52EBD
:101DE000B12CC7010A2C02C0969587950A94E2F798
:101DF000282F2F7041F0822F90E02A3010F44D965A
:101E000004C0069702C087E290E00E94C32294E0DB
:101E1000A91AB108ECEFAE16EFEFBE0611F78091EC
:101E20007D02813039F040F0823031F0843051F45D
:101E300088E206C08CE204C082EE0E94562102C0F5
:101E40000E94C3228091420280934B023FCF013017
:101E500080E8180708F43ACF0C3CFCE51F0709F0AE
:101E600035C1F6018281882309F405C78091BD023E
:101E700090E0019797FF02C080E090E084309105E8
:101E800014F083E090E08093BD026091B9027091FC
:101E9000BA028091BB029091BC0228960FB6F894CA
:101EA000DEBF0FBECDBFDF91CF911F910F91FF908D
:101EB000EF90DF90CF90BF90AF909F908F900C9459
:101EC000A208043C3CE51307E9F4F601828188236B
:101ED00009F4D1C680914B02827269F528960FB63B
:101EE000F894DEBF0FBECDBFDF91CF911F910F9150
:101EF000FF90EF90DF90CF90BF90AF909F908F902A
:101F00000C94CA09053C8CE5180708F097C4053104
:101F10009CE5190720F1023C3CE5130709F41AC4BB
:101F200008F453C4F6018281882309F4A4C6809181
:101F30004B02827299F628960FB6F894DEBF0FBE58
:101F4000CDBFDF91CF911F910F91FF90EF90DF9068
:101F5000CF90BF90AF909F908F900C94D409023097
:101F6000ECE51E0708F469C0F6018281882309F4B4
:101F7000D1C00E940324811102C00E940E2484E07B
:101F800090E00E949A2690E09093900280938F02B6
:101F9000F801E350FC45E231F10530F4E35AFF4F1C
:101FA00080918F020C94532A80918F02816027C008
:101FB000826025C0846023C0806121C080621FC010
:101FC00080641DC080681BC08460886018C08E7FDC
:101FD00016C08D7F14C08B7F12C08F7E10C08F7D86
:101FE0000EC08F7B0CC08F770AC08B7F877F07C0A6
:101FF00087FB222720F991E0922790FB87F98093B5
:102000008F0260918F0284E090E00E94AE261092D1
:102010004B0228960FB6F894DEBF0FBECDBFDF91FE
:10202000CF911F910F91FF90EF90DF90CF90BF90D5
:10203000AF909F908F900C942E210115FCE51F0707
:1020400009F05FC0F6018281882309F414C610925A
:102050004B020E942E21FFEF04E31CE0F1500040F0
:102060001040E1F700C00000F89481E08093E000A8
:1020700080E28093D8001092C9008FE19EE401971E
:10208000F1F700C000001DBA109268001CBC10BE21
:102090001FBA10927A0010926E0010926F00109288
:1020A0007100109272001092C9001092BC0014B816
:1020B00017B81AB81DB810BA1092BC0015B818B8E5
:1020C0001BB81EB811BA0C94003FD5C50D3C2CE5C9
:1020D000120708F002CE043C3CE5130709F4F5CEE4
:1020E00008F0ACC305319CE5190708F014CF0230A5
:1020F000ECE51E0708F038CF0115FCE51F0709F4D1
:10210000BAC501301C4509F41AC381E08093480226
:1021100080934902F601828100811181882349F070
:10212000C8010E94AC24F82E682FC8010E94252502
:1021300004C0C8010E94F824F82EB8018F2D0E9417
:10214000F509182F382FF601258122952F7002816D
:10215000011110925703809155038770A9F0002355
:1021600099F080E2810F883078F082E02F83388701
:102170009E830E94F125809155038770EE24E3949D
:102180002F8138859E818111E12CA92EA2944FE0E8
:10219000A422B12CFCE0AF16B10408F098C2F501FE
:1021A000E159FF4F0C94532A892F807F9F70F92E9D
:1021B000882319F0F29480EFF8220023B9F0FF2071
:1021C00009F416C280E2810F883010F0311106C088
:1021D00090914B02F92AF0924B0205C0909157035F
:1021E000F92AF09257030E94662402C2812F388791
:1021F0000E9456213885FF2009F469C2105EF094D0
:10220000183010F0311106C090914B02F922F09273
:102210004B0205C090915703F922F09257030E9498
:10222000662455C2492F407F892F8F70403211F0AC
:102230008295807F332319F03130E9F025C00023E7
:1022400081F030915803222351F0213041F4982F2E
:10225000932B391709F43BC29093580338C2832B50
:102260004FC1222319F0213009F431C28E830E941C
:1022700060248E814BC1002321F0223008F027C258
:102280003FC1211124C242C1002321F0222309F4BD
:1022900037C1AEC1222309F439C1BCC1292F26950B
:1022A0002695237030E02115310521F021303105CC
:1022B00059F00DC2002319F0812F937002C080E005
:1022C00090E00E94AB0511C2002319F0812F93709A
:1022D00002C080E090E00E94950507C2892F8370BC
:1022E00009F079C00111FFC1812F82958695877011
:1022F000880F880F412F4F7050E060E070E04A0176
:102300005B01082E04C0880C991CAA1CBB1C0A94F3
:10231000D2F714FF14C04FE050E060E070E08A0193
:102320009B0104C0000F111F221F331F8A95D2F793
:10233000B901A801409550956095709503C040E0A3
:1023400050E0BA01969596959370892F90E0009190
:10235000590310915A0320915B0330915C03823042
:102360009105A9F083309105E9F0019759F04829CA
:1023700059296A297B29CB01BA0160237123822361
:10238000932326C0802A912AA22AB32A1BC0482957
:1023900059296A297B29CB01BA0160277127822735
:1023A000932716C0CB01BA016023712382239323A4
:1023B0000E942B264091590350915A0360915B0370
:1023C00070915C03CB01BA01682979298A299B297C
:1023D0000E942B2688C1002319F0892F817001C02B
:1023E0008695882309F47FC1812F82958695877011
:1023F000880F880F412F4F7050E060E070E04A0175
:102400005B01082E04C0880C991CAA1CBB1C0A94F2
:10241000D2F714FF14C04FE050E060E070E08A0192
:102420009B0104C0000F111F221F331F8A95D2F792
:10243000B901A801409550956095709503C040E0A2
:1024400050E0BA01969596959370892F90E000918F
:102450005103109152032091530330915403823061
:102460009105A9F083309105E9F0019759F04829C9
:1024700059296A297B29CB01BA0160237123822360
:10248000932326C0802A912AA22AB32A1BC0482956
:1024900059296A297B29CB01BA0160277127822734
:1024A000932716C0CB01BA016023712382239323A3
:1024B0000E9455254091510350915203609153035E
:1024C00070915403CB01BA01682979298A299B2983
:1024D0000E94552508C1412F50E0FA01E05EF10944
:1024E000E531F10508F07FC0E558FF4F0C94532A01
:1024F0001F70892F8F71002331F00E940A26812FCF
:102500000E944C21E4C00E94CC25812F0E944121D1
:10251000DEC0002311F12111DAC0292F2F7181E0D3
:1025200090E0A0E0B0E0AC01BD0104C0440F551F35
:10253000661F771F2A95D2F780915103909152031D
:10254000A0915303B09154038A019B0108271927D6
:102550002A273B27C901B80125C0223008F0B7C09F
:10256000DCCF002329F0892F8F712EC00023D9F3EF
:10257000892F8F710E94CC25AAC0002381F0292FBA
:102580002F7181E090E0A0E0B0E0BC01CD0104C07B
:10259000660F771F881F991F2A95D2F703C060E046
:1025A00070E0CB010E94552592C0002381F0192FC5
:1025B0001F71812F0E940A2628E0129FC00111245A
:1025C000836080935503812F0E940A2680C081E09A
:1025D0002F830E94F1252F81223008F478C082E0F9
:1025E0000E94F12574C0002339F0222309F4BBCFE7
:1025F000812F0E94B2216BC0222309F4B9CF193375
:1026000049F43FEF87EE93E0315080409040E1F78E
:1026100000C00000812F0E94562159C0323FB1F006
:1026200028F4303F49F0313FF9F028C0343FB9F089
:1026300058F0353F71F022C0002309F456C0909144
:10264000C10281E0892708C081E008270093C10208
:102650004CC001114AC081E08093C10246C0011103
:1026600044C01092C10241C0002329F08091C002F1
:10267000882329F329C0222311F337C08091C00297
:102680002223C1F0882341F09091C10281E0892783
:102690008093C1021092C002812F002319F00E9482
:1026A000B22123C00E94562186E0F60111928A953C
:1026B000E9F71BC08823C9F0011117C09091C1022E
:1026C00081E089278093C1021092C0020EC0F8E019
:1026D000AF16B10441F04CF01AE0A11AB10822E0A3
:1026E000A216B10410F40E94C105EE2009F4C3C281
:1026F0008091550380FDBFC2F601128285958595B4
:1027000085950E940A26C6010E94FF0D80915503FF
:1027100085958595859528960FB6F894DEBF0FBEF2
:10272000CDBFDF91CF911F910F91FF90EF90DF9080
:10273000CF90BF90AF909F908F900C94CC25F601D6
:102740008281882309F497C28091A40281608093DA
:10275000A40291C2F6018281882309F48CC280917F
:10276000B90280FF2CC08E7F8093B9026091B902BC
:102770007091BA028091BB029091BC020E94A208A3
:102780001092BF02FFEF00E712E0F150004010404E
:10279000E1F700C0000028960FB6F894DEBF0FBE28
:1027A000CDBFDF91CF911F910F91FF90EF90DF9000
:1027B000CF90BF90AF909F908F900C94CD0581608B
:1027C0008093B90286958F73A3CA06311C4509F020
:1027D0009CCC90914B02F6018281882381F09A7AF9
:1027E00081E009F480E080934302811102C069E234
:1027F00001C065E382EC92E00E94CB230BC0809184
:102800004302811102C069E201C065E382EC92E0FB
:102810000E94A02328960FB6F894DEBF0FBECDBF4E
:10282000DF91CF911F910F91FF90EF90DF90CF90AC
:10283000BF90AF909F908F900C946624083CECE57D
:102840001E0751F5F6018281882309F414C2809194
:10285000B902881F8827881F9091BA02392F330F39
:1028600097FB992790F921E04091BC0260E0832B0F
:1028700028960FB6F894DEBF0FBECDBFDF91CF9183
:102880001F910F91FF90EF90DF90CF90BF90AF908E
:102890009F908F900C94BE08093CFCE51F0708F040
:1028A00056C0063C2CE5120721F5F60182818823EB
:1028B00009F4E1C12091B902221F2227221F309181
:1028C000BA02432F440F842F822B37FB992790F9AC
:1028D0008C3091051CF4845A9E4F01C00C9768E619
:1028E00071E00E943F2A21E04091BC026091BB024E
:1028F000BFCF073C1C45A8F4F6018281882309F468
:10290000BAC12091B902221F2227221F3091BA0298
:10291000432F440F842F822B37FB992790F90C9675
:10292000DECFF6018281882309F4A5C18091B90226
:10293000881F8827881F9091BA02392F330F97FB81
:10294000992790F921E04091BC026FEF90CF0A3CAB
:102950008CE51807F1F4F6018281882309F48BC114
:102960004091BC02842F90E00C9714F04C5001C0B1
:1029700040E08091B902881F8827881F9091BA0291
:10298000392F330F97FB992790F921E06091BB0213
:102990006ECF0B3C1C4580F4F6018281882309F43C
:1029A0006AC14091BC02842F90E0843F910514F4E9
:1029B000445FDFCF4FEFDDCFF6018281882309F43A
:1029C0005AC18091BD0290E0019658CAF6018281F9
:1029D000882309F450C10E9463088951893008F4A2
:1029E000AACA89E195C9F6018281882309F443C105
:1029F0000E9463088950853008F49DCA89E088C91F
:102A0000F6018281882309F436C10E94630882504E
:102A1000833008F490CA82E07BC9F6018281882362
:102A200009F429C10E9463088650823008F483CAE1
:102A300086E06EC9023DECE51E0769F4F60182816D
:102A4000882309F418C10E9463088551823008F474
:102A500072CA85E15DC9033D1C4568F4F6018281B7
:102A6000882309F408C10E9463088F50853008F458
:102A700062CA8FE04DC9F6018281882309F4FBC048
:102A800088E146C9093D2CE5120709F05EC0F60150
:102A900082818823E9F0109249020E946B2390936F
:102AA00047028093460280E228960FB6F894DEBF74
:102AB0000FBECDBFDF91CF911F910F91FF90EF908F
:102AC000DF90CF90BF90AF909F908F900C944C214F
:102AD000809149028823A9F080E228960FB6F894E5
:102AE000DEBF0FBECDBFDF91CF911F910F91FF9041
:102AF000EF90DF90CF90BF90AF909F908F900C940D
:102B0000412180914602909147020E944123883CD6
:102B1000910510F780E20E94412188E20E94B221D3
:102B200088E228960FB6F894DEBF0FBECDBFDF91C6
:102B3000CF911F910F91FF90EF90DF90CF90BF90BA
:102B4000AF909F908F900C9456210A3D3CE513075F
:102B500008F060C0073D8CE5180761F5F601828139
:102B6000882351F0109248020E946B2390934502F3
:102B70008093440282E098CF80914B0285FF05C08C
:102B800081E080934802809349028091480281113C
:102B90000FC080914402909145020E944123883CDD
:102BA000910530F486E20E94B22186E20E9456210D
:102BB00082E093CF083D9CE5190710F1F601828170
:102BC000811169CF80914B0281FF05C081E0809324
:102BD0004802809349028091490281117DCF809102
:102BE0004602909147020E944123883C910508F0DB
:102BF00073CF87E20E94B22187E20E9456216CCFF8
:102C0000053D1C4509F081CAF6018281882399F1AE
:102C100083E27EC80D3DFCE51F0741F4F601828189
:102C2000882349F182E080937A0225C00E3D2CE58D
:102C30001207C1F4F60182818823E9F028960FB6C5
:102C4000F894DEBF0FBECDBFDF91CF911F910F91E2
:102C5000FF90EF90DF90CF90BF90AF909F908F90BC
:102C60000C940E240C3D1C4509F04FCAF6018281DC
:102C7000811110927A0228960FB6F894DEBF0FBE2B
:102C8000CDBFDF91CF911F910F91FF90EF90DF901B
:102C9000CF90BF90AF909F908F900895CF93DF9388
:102CA0008093BB0084E88093BC000E946B23EC01FE
:102CB0009091BC0097FD0AC00E946B238C1B9D0B5A
:102CC00084369105A8F38EEF9FEF0CC02091B900D8
:102CD000287F81E090E0283211F480E090E0919527
:102CE00081959109DF91CF9108950F931F93CF9311
:102CF000DF93C82F1092BC0084EA8093BC000E942E
:102D00006B238C019091BC0097FD0AC00E946B233D
:102D1000801B910B84369105A8F38EEF9FEF2AC09C
:102D20009091B900987F983041F09091B900987FC8
:102D3000903119F08FEF9FEF1DC0C093BB0084E866
:102D40008093BC000E946B23EC019091BC0097FD26
:102D500008C00E946B238C1B9D0B84369105A8F341
:102D6000DCCF8091B900887F883111F0803411F771
:102D700080E090E0DF91CF911F910F910895CF9265
:102D8000DF92FF920F931F93CF93DF931F92CDB7E4
:102D9000DEB7F82E8B0199830E94DE1B9981811189
:102DA0001CC0CF2CD92E01151105B1F08091E8007F
:102DB00085FD0AC08091E8008E778093E8000E942C
:102DC000DE1B882381F309C0F60181916F01809396
:102DD000F10001501109E7CF80E00F90DF91CF9112
:102DE0001F910F91FF90DF90CF9008951F93CF9385
:102DF000DF93CDB7DEB7AA970FB6F894DEBF0FBE4C
:102E0000CDBFE2E7F2E088E08E0F9091F100919360
:102E10008E13FBCF80917302833009F460C030F4CD
:102E2000813071F0823009F49CC0B3C08A3009F45B
:102E300088C08B3009F46BC0893009F0AAC020C06B
:102E400080917202813A09F0A4C08091E800877FE6
:102E50008093E8008091760290917702892B21F48B
:102E600060E28EE492E003C060E080E090E070E019
:102E70000E94641C8091E8008B778093E80089C0F1
:102E800080917202813209F084C080917602909123
:102E90007702029708F07DC08091E800877F8093D9
:102EA000E8008091E80082FD05C0809170028111E8
:102EB000F8CF6FC02091F3008091F20090E0922B48
:102EC000029729F48091F1008B7F813021F4809169
:102ED000F10080934D028091E8008B7756C080917D
:102EE0007202813A09F055C0809176029091770282
:102EF000892B09F04EC08091E800877F8093E8001D
:102F00008091E80080FFFCCF8091130139C080914F
:102F100072028132F1F58091760290917702892BCD
:102F2000C1F58091E800877F8093E8000E94101C23
:102F3000809174028093130110924B020E942E2103
:102F400028C080917202813221F58091E800877F4C
:102F50008093E8000E94101C8091750280934C02BF
:102F600018C080917202813AA1F48091E800877FB5
:102F70008093E8008091E80080FFFCCF80914C02B4
:102F80008093F1008091E8008E778093E8000E94A2
:102F9000101C8091E80083FFD6C18091720290914D
:102FA0007302492F50E04A30510508F0CCC1FA01B4
:102FB000E057FF4F0C94532A803821F0823809F0F3
:102FC000C2C108C080916E0290916F02992389F06E
:102FD00082600FC0809176028F70873008F0B3C195
:102FE0008093E9008091EB0085FB882780F910929F
:102FF000E9009091E800977F9093E8008093F100BA
:103000001092F10074C1282F2D7F09F09CC18823F4
:1030100019F0823061F097C180917402813009F01B
:1030200092C1933009F080E080936F022EC08091AE
:10303000740281112AC0809176028F702FEF280FC1
:10304000263008F080C18093E9002091EB0020FF3A
:103050001CC0933021F48091EB00806214C09091E9
:10306000EB0090619093EB0021E030E0A90102C0F9
:10307000440F551F8A95E2F74093EA001092EA0048
:103080008091EB0088608093EB001092E9008091C2
:10309000E800877F2FC1811156C1109174021F77FC
:1030A0008091E3008078812B8093E3008091E80099
:1030B000877F8093E8000E94101C8091E80080FFC9
:1030C000FCCF8091E30080688093E300111102C07F
:1030D00082E001C083E08093700235C18058823065
:1030E00008F031C180917402909175028C3D53E0DB
:1030F000950779F583E08A838AE289834FB7F8944C
:10310000DE01139620E03EE051E2E32FF0E0509321
:103110005700E49120FF03C0E295EF703F5FEF702E
:103120008E2F90E0EA3010F0C79601C0C0968D93C4
:103130009D932F5F243149F74FBF8091E800877F2F
:103140008093E8006AE270E0CE0101960E94641C60
:10315000BDC04091760250917702292F332723304A
:103160003105B9F06CF42130310509F4FBC022308F
:10317000310509F0E8C08BE390E0EFEAF4E054C0D9
:103180002132310509F433C02232310509F43CC043
:10319000DAC0992781309105D1F05CF4892B09F0D0
:1031A000D2C0E2E3F5E0E4918E2F90E0E2E3F5E0B7
:1031B00038C08230910599F0039709F0C4C0ECEF54
:1031C000F4E0E4918E2F90E0ECEFF4E02AC0EAE125
:1031D000F5E0E4918E2F90E0EAE1F5E022C0E2E034
:1031E000F5E0E4918E2F90E0E2E0F5E01AC04115A1
:1031F000510509F4BCC04130510509F0A4C089E073
:1032000090E0EAEDF4E010C04115510509F4B4C0B6
:103210004130510509F097C081E790E0EEEFF3E00F
:1032200003C0009709F48FC02091E800277F209306
:10323000E80020917802309179022817390708F4C4
:10324000C90140E0009789F120917002222309F41E
:103250003DC02530D9F12091E80023FD37C02091F1
:10326000E80022FD2FC02091E80020FFEBCF409125
:10327000F3002091F20030E0342B009759F0283011
:10328000310540F444914093F100319601972F5F4E
:103290003F4FF3CF41E02830310509F040E0209165
:1032A000E8002E772093E800CDCF4111CDCF0AC0A2
:1032B00080917002882351F0853041F08091E800C0
:1032C00083FD04C08091E80082FFF2CF8091E80086
:1032D0008B778093E80037C08038A9F58091E800AB
:1032E000877F8093E800809171028093F100809144
:1032F000E8008E778093E8000E94101C24C08111A2
:1033000022C0109174021230F0F48091E800877F9F
:103310008093E800109371020E94101C111106C0E6
:103320008091E30087FD02C081E001C084E08093CA
:10333000700242E061EC81E00E942F1C42E261ECED
:1033400082E00E942F1C8091E80083FF1AC08091C8
:10335000E800877F8093E8008091EB008062809393
:10336000EB000FC082E190E0EAEEF4E05DCF89E08F
:1033700090E0E1ECF4E058CF80E490E0EFE6F4E098
:1033800053CFAA960FB6F894DEBF0FBECDBFDF9124
:10339000CF911F9108951F920F920FB60F92112493
:1033A0002F933F934F935F936F937F938F939F934D
:1033B000AF93BF93CF93DF93EF93FF93C091E90057
:1033C000CF708091EC00D82FD17080FDD0E81092A2
:1033D000E9008091F000877F8093F00078940E944C
:1033E000F6161092E9008091F00088608093F0005A
:1033F000CD2BCF70C093E900FF91EF91DF91CF917A
:10340000BF91AF919F918F917F916F915F914F91FC
:103410003F912F910F900FBE0F901F901895E8EDE0
:10342000F0E080818E7F80831092E2001092DA00BB
:103430001092E100A0EEB0E08C9181608C938081CD
:103440008F77808319BCA7EDB0E08C918E7F8C9331
:1034500080818F7E808310924A020895CF92DF92FE
:10346000EF92FF920F931F93CF93DF93C8EDD0E0BD
:1034700088818F7E8883E7EDF0E0808181608083A2
:1034800084E082BF81E080934A0288818E7F8883B6
:1034900002EE10E0F80110821092DA0081EEC82EE0
:1034A000D12CF601108288818F778883888180688B
:1034B000888388818F7D888319BC10927002109256
:1034C000710210926F0210926E0290EEE92EF12CB2
:1034D000F70180818B7F808388818160888342E0CF
:1034E00060E080E00E942F1CF60180818E7F808347
:1034F000F801808181608083808188608083F7010A
:1035000080818E7F8083888180618883DF91CF91E5
:103510001F910F91FF90EF90DF90CF9008951F9231
:103520000F920FB60F9211242F933F934F935F93F7
:103530006F937F938F939F93AF93BF93EF93FF937B
:103540008091E10082FF09C08091E20082FF05C006
:103550008091E1008B7F8093E1008091DA0080FF11
:103560002AC08091D80080FF26C08091DA008E7F2B
:103570008093DA008091D90080FF18C080E189BD76
:1035800082E189BD09B400FEFDCF81E08093700225
:1035900080914A0281110FC00E940F1A0E942E1AB8
:1035A0008091E20084608093E20005C019BC109213
:1035B000700210924A028091E10080FF17C0809152
:1035C000E20080FF13C08091E2008E7F8093E200D2
:1035D0008091E20080618093E2008091D800806257
:1035E0008093D80019BC85E0809370028091E1003F
:1035F00084FF34C08091E20084FF30C080E189BD47
:1036000082E189BD09B400FEFDCF8091D8008F7D95
:103610008093D8008091E1008F7E8093E1008091BB
:10362000E2008F7E8093E2008091E20081608093CF
:10363000E20080917102882311F084E007C080913C
:10364000E30087FD02C081E001C083E08093700247
:1036500010924B020E942E210E94C1058091E10030
:1036600083FF27C08091E20083FF23C08091E100A7
:10367000877F8093E10082E0809370021092710254
:103680008091E1008E7F8093E1008091E2008E7F47
:103690008093E2008091E20080618093E20042E04A
:1036A00060E080E00E942F1C8091F0008860809391
:1036B000F000FF91EF91BF91AF919F918F917F911A
:1036C0006F915F914F913F912F910F900FBE0F908F
:1036D0001F901895CF93DF9300D01F92CDB7DEB720
:1036E0009C0190917A02911105C080917002843002
:1036F00049F504C0923011F0943021F584E08983BB
:103700003B832A8382E08093E9008FEF9091E80069
:10371000815095FD06C095ED9A95F1F70000811155
:10372000F5CF8091E80085FF0DC040E050E063E0F8
:1037300070E0CE0101960E94BF168091E8008E775E
:103740008093E8000F900F900F90DF91CF91089534
:10375000CF93DF9300D01F92CDB7DEB720917002D8
:10376000243031F523E02983805891099B838A8393
:1037700082E08093E9008FEF9091E800815095FD01
:1037800006C095ED9A95F1F700008111F5CF809173
:10379000E80085FF0DC040E050E063E070E0CE013E
:1037A00001960E94BF168091E8008E778093E80012
:1037B0000F900F900F90DF91CF9108952091E4002A
:1037C0003091E50095E64091EC00842F817040FF38
:1037D00022C08091E80080FD1CC080917002882387
:1037E00091F0853091F08091EB0085FD10C0409103
:1037F000E4005091E5004217530729F39A019150D4
:1038000011F784E0089582E0089583E0089581E04F
:10381000089580E008954091E80042FFDECF0895CA
:103820008091720287FF11C08091E80082FD05C07F
:10383000809170028111F8CF11C08091E8008B77E0
:103840000BC080917002882349F08091E80080FFCE
:10385000F8CF8091E8008E778093E8000895982F44
:10386000973058F59093E900981739F07091EC0073
:103870002091ED005091F00003C0242F762F50E0EE
:1038800021FF19C03091EB003E7F3093EB00309167
:10389000ED003D7F3093ED003091EB0031603093CF
:1038A000EB007093EC002093ED005093F00020911A
:1038B000EE0027FF07C09F5FD3CF8F708093E90092
:1038C00081E0089580E00895209178023091790296
:1038D0002617370748F06115710539F42091E80083
:1038E0002E772093E80001C0B90140E06115710511
:1038F000A9F120917002222309F443C0253009F474
:1039000042C02091E80023FD40C02091E80022FD44
:1039100032C02091E80020FFE9CF4091F3002091D0
:10392000F20030E0342BFC01CF016115710559F034
:103930002830310540F481918093F1006150710984
:103940002F5F3F4FF1CF41E02830310509F040E0D3
:103950002091E8002E772093E800C8CF4111C9CF0D
:103960000AC080917002882361F0853061F08091F7
:10397000E80083FD0AC08091E80082FFF2CF80E07A
:10398000089582E0089583E0089581E00895CF933B
:10399000DF93CDB7DEB72C970FB6F894DEBF0FBE1E
:1039A000CDBF84B7877F84BF0FB6F894A895809168
:1039B0006000886180936000109260000FBE80E814
:1039C000809361001092610085B7806885BF85B7DC
:1039D000806885BF0E940F1A0E942E1A8091E20013
:1039E00084608093E2007894809170028823A1F033
:1039F0001091E9001F709091EC00892F817090FD6B
:103A000080E8182B1092E9008091E80083FD0E9465
:103A1000F6161F701093E90082E084BD93E095BD17
:103A20009AEF97BD80936E000E94520C90E09093A5
:103A30001501809314010E94150D0E94240DA1E828
:103A4000B2E0E5E9F2E09EE0D92EDE0E11921D9281
:103A5000DE12FCCF84E590E00E94592AAC019093DD
:103A60007C0280937B0220E030E08BEFFA01E20FD2
:103A7000F31F90E081939F5F9630E1F72A5F3F4FFD
:103A80002435310599F70E940324811102C00E9458
:103A90000E248CE090E00E949A2690E0A0E0B0E036
:103AA00080937D0290937E02A0937F02B093800268
:103AB00089EA8093800089E08093810024982C9883
:103AC0003F988AB18F7C8AB96E98479A8BB1806390
:103AD0008BB9769A0E94BD0C0E940324811102C00A
:103AE0000E940E2482E090E00E949A268093A40215
:103AF00084E090E00E949A2690E090939002809358
:103B00008F0283E090E00E949A26682F70E080E0A8
:103B100090E00E942B2680919102811139C0809102
:103B2000A40281608093A4020E940324811104C036
:103B30000E940E240E94DF0988E090E00E94A226E5
:103B40006093B9027093BA028093BB029093BC0257
:103B50006E7771F40E94DF0988E090E00E94A2264F
:103B60006093B9027093BA028093BB029093BC0237
:103B70000E946C081092BF028091B90280FF05C0BC
:103B8000869560E08F730E94780981E080939102AE
:103B900086E191E0909393028093920286E3E82E6F
:103BA00085E0F82E80917002853009F047C0809141
:103BB0007002843021F11092940220E488E190E0B8
:103BC0000FB6F894A895809360000FBE2093600014
:103BD00083B7817F846083BF83B7816083BF78941C
:103BE000889583B78E7F83BF0FB6F894A895809190
:103BF0006000886180936000109260000FBE809129
:103C00006F02882309F4CECF0E94520C90E090936B
:103C10001501809314010E94150D0E94240DE5E901
:103C2000F2E01192DE12FDCF0E942B0DE5E9F2E0E9
:103C300081918111FEC0DE12FBCFB4CF0E942B0D0B
:103C4000E5EAF2E0A5E9B2E000E010E0302F2D91C6
:103C500041914227B9F180E090E050E0682F5A018D
:103C6000082E02C0B594A7940A94E2F7A0FE26C0DD
:103C700089833A8381E090E05C0102C0AA0CBB1CFE
:103C80006A95E2F7822F90E08A219B2121E0892B1F
:103C900009F420E02B830E946B238160782F9D83A1
:103CA0008C8349815A816B818D810E94BF04F80108
:103CB000EB55FD4F8081A826A0821AC00196863060
:103CC000910561F60F5F1F4F0E30110509F0BECF51
:103CD0008FEF8E838F8318860E946B238160782FED
:103CE0009A8789874E815F8168858A850E94BF0493
:103CF0001091A3020E94C105181721F00E94C1056E
:103D00008093A3028091BF02882309F44BCF809156
:103D1000BE02E091B902E695EF73E81BE093B502AD
:103D2000823049F4F0E0EC5BFA4FE4910E2F10E0A2
:103D300022E238E048C0863049F4F0E0EF5BFA4F09
:103D4000E4910E2F10E02BE038E03DC0893051F4B3
:103D5000E695F0E0E25CFA4FE4910E2F10E02CE4DF
:103D600037E031C08F3051F4E695F0E0E55CFA4F72
:103D7000E4910E2F10E020ED36E025C0853149F4A6
:103D8000F0E0E85CFA4FE4910E2F10E029E636E00F
:103D90001AC0883179F0833231F4F701059114911A
:103DA0002CEA37E010C0843251F404EF11E024EE25
:103DB00035E009C008EE13E020E336E004C000ED72
:103DC00017E023EC32E08091B6028823A9F010922C
:103DD000B6022B873C870E946B23A8014095509523
:103DE000840F951F9093B4028093B3021092B8028F
:103DF0001092B7023C852B858091B3029091B4025A
:103E00002B873C870E9441232B853C858017910797
:103E100008F4C8CEE091B302F091B4020E0F1F1F58
:103E20001093B4020093B30283EB92E0F901099579
:103E3000B9CE80E189BD82E189BD09B400FEFDCF24
:103E40008091D8008F7D8093D8008091E0008260BF
:103E50008093E0008091E00081FDFCCFA3CE0E9422
:103E6000ED24292F2F7092959F70E92FF0E0329763
:103E7000EE30F105B8F4E656FF4F0C94532A803F1C
:103E800099F018F4803E70F40FC0843F59F40CC0D0
:103E9000803E50F0813F31F407C0822F8695869591
:103EA0008695089580E0089581E00895BF92CF92AD
:103EB000DF92EF92FF920F931F93CF93DF93CDB7D3
:103EC000DEB761970FB6F894DEBF0FBECDBF8C0191
:103ED00085E0F801DE011D9601900D928A95E1F7CB
:103EE000D8013C9111962C9111971296EC90129753
:103EF0001396CD90DC9014975091E2026091E3020A
:103F00008091E5029091E602009709F44FC16F3F5E
:103F100019F45F3F09F44AC1B090E402BB2009F4F0
:103F2000ECC04091E702C816D90628F0F601E81B5C
:103F3000F90BCF0104C0809590958C0D9D1DFF2439
:103F4000F394883C910548F0F12C407F09F09FC024
:103F500082EE92E00E94FF0D21C1842F807F09F044
:103F600044C0621312C0531310C0E1100EC04F7052
:103F700040614093E70282EE92E00E94FF0D809143
:103F8000E702D80115968C932EC0CD2819F12F3F4A
:103F900011F43F3FF9F0FE2CE1101CC08091190391
:103FA0004091E80256E0841709F458C090E0589F09
:103FB000F001599FF00D1124E751FD4F6181261347
:103FC00006C06081361303C06281611103C001968F
:103FD0008770E9CFFE2CEE2009F421C18091E70221
:103FE00081608093E702F12C1AC162130AC0531357
:103FF00008C0E11006C08091E702D80115968C93A5
:10400000B0C03D872E878D859E850E942F1F8823F7
:10401000D1F1EE20C1F12091E702822F82958F70BD
:1040200090E0029774F08091E2029091E302988709
:104030008F831986DB86CA862C87CE0107960E945D
:10404000FF0D86E0F801A2EEB2E001900D928A9594
:10405000E1F70E943F26FF24F394E1C03D872E87BD
:104060008D859E850E94ED24292F22952F7030E0AA
:10407000223031050CF0C7C09F7009F0C1C0805ECE
:10408000883008F4CCC0C8010E94FF0DE4CF621351
:1040900014C0531312C0E11010C08091E702F80160
:1040A0008583C8010E94FF0D86E0E2EEF2E0DF01A9
:1040B0001D928A95E9F7FB2CB2C03D872E878D852E
:1040C0009E850E942F1F8823F1F2EE20E1F22091BD
:1040D000E702822F82958F7090E002970CF4B1CFA7
:1040E0008091E2029091E3029A8389831B82DD82B0
:1040F000CC822E83CE010196A2CFC816D90638F005
:10410000C81AD90AB8ECCB16D10450F007C0809574
:1041100090958C0D9D1D883C910510F0F12C3EC0B2
:10412000FE2CEE2009F4AFCF621327C0531325C035
:104130002091E70220FD18C0822F82958F70482FB2
:1041400050E04115510581F0F80125834F305105AC
:1041500041F08F5F982F9295907F822F8F70892BDF
:104160008583C8010E94FF0D86E0F801A2EEB2E04F
:1041700001900D928A95E1F752C03D872E878D857B
:104180009E850E942F1F81115CCF8091E702816084
:104190008093E702C8010E94FF0D41C0E2EEF2E009
:1041A00086E0DF011D928A95E9F739C0EE2009F417
:1041B0006ACF3D872E878D859E850E942F1FF82E02
:1041C000882309F460CF86E0F801A2EEB2E0019006
:1041D0000D928A95E1F78091E2029091E3020E94AC
:1041E000ED2492959F70963041F48091C10291E048
:1041F00089278093C1029093C0020E943F260FC07E
:1042000081113DCF0CC0243031050CF03CCF9F70A4
:1042100009F435CFF8019581907F09F030CF8F2DCB
:1042200061960FB6F894DEBF0FBECDBFDF91CF9180
:104230001F910F91FF90EF90DF90CF90BF90089566
:1042400010925703109256030E94662480E090E07B
:104250000E94AB0580E090E00C94950580911301DD
:10426000882331F080918F0287FF02C08EE101C068
:1042700086E0E4ECF2E0DF011D928A95E9F70C9408
:104280002021882341F0809590914B0289238093CF
:104290004B020C9466240895882339F090914B02C8
:1042A000892B80934B020C9466240895882309F48B
:1042B00058C0682F823869F40E94C10581FF51C03F
:1042C00069E382EC92E00E94CB230E94662469E3BA
:1042D0000EC0833891F40E94C10580FF42C063E59F
:1042E00082EC92E00E94CB230E94662463E582EC7C
:1042F00092E00E94A0230C946624843869F40E9402
:10430000C10582FF2EC067E482EC92E00E94CB23BD
:104310000E94662467E4EBCF8CEF860F813A38F376
:1043200080E2860F883070F4677081E090E001C011
:10433000880F6A95EAF7809590914B0289238093C4
:104340004B02D9CF8BE5860F833020F480E090E0DC
:104350000C94AB05685A673120F480E090E00C942F
:1043600095050895882309F40DC1682F8238B1F4AA
:104370000E94C10581FD06C169E382EC92E00E94C2
:10438000CB230E9466242FEF81EE94E021508040E1
:104390009040E1F700C0000069E317C08338D9F40A
:1043A0000E94C10580FDEEC063E582EC92E00E94B0
:1043B000CB230E9466242FEF81EE94E021508040B1
:1043C0009040E1F700C0000063E582EC92E00E94BB
:1043D000A0230C9466248438B1F40E94C10582FDA8
:1043E000D1C067E482EC92E00E94CB230E94662455
:1043F0002FEF81EE94E0215080409040E1F700C023
:10440000000067E4E2CF8CEF860F813A28F482EC5B
:1044100092E00E94CB23DDCF80E2860F883068F4E3
:10442000677081E090E001C0880F6A95EAF790918B
:104430004B02892B80934B02CCCF8BE5860F8330C8
:1044400070F4653A29F0663A31F083E890E005C0EF
:1044500081E890E002C082E890E00C94AB0588E52A
:10446000860F873108F08EC0683A09F445C0693A72
:1044700009F445C06A3A09F445C06B3A09F445C0ED
:104480006C3A09F445C06B3B09F445C06C3B09F438
:1044900045C06D3A09F445C0603B09F445C06E3A29
:1044A00009F445C06F3A09F445C0613B09F445C0C1
:1044B000623B09F445C0633B09F445C0643B09F421
:1044C00045C0653B09F445C0663B09F445C0673B00
:1044D00009F445C0683B09F445C0693B09F445C08F
:1044E0006D3B09F445C06E3B09F445C06A3B09F4D5
:1044F00045C080E090E044C082EE90E041C089EE8B
:1045000090E03EC08AEE90E03BC085EB90E038C082
:1045100086EB90E035C083EB90E032C084EB90E016
:104520002FC087EB90E02CC08CEC90E029C08DEC84
:1045300090E026C083E891E023C08AE891E020C0A3
:1045400082E991E01DC084E991E01AC081E292E025
:1045500017C083E292E014C084E292E011C085E2C9
:1045600092E00EC086E292E00BC087E292E008C0C3
:104570008FE690E005C080E790E002C08AE292E01A
:104580000C9495050895CF93C82F0E94B2218C2FCB
:10459000CF910C945621089580914D020895CF93A8
:1045A000DF9320917A02211103C02091700202C092
:1045B000223011F02430E1F520911301222339F04B
:1045C00020918F0227FF03C060E222E002C068E072
:1045D00021E02093E9002FEF3091E800215035FDD4
:1045E00006C035ED3A95F1F700002111F5CF209185
:1045F000E80025FF1DC0EC0180911301811105C069
:1046000040E050E068E070E003C070E040E050E05F
:10461000CE010E94BF168091E8008E778093E8005B
:1046200080E2FE01AEE4B2E001900D928A95E1F7DE
:10463000DF91CF91089578941F920F920FB60F9249
:1046400011248F939F93AF93BF9380915D039091BB
:104650005E03A0915F03B09160030196A11DB11D9F
:1046600080935D0390935E03A0935F03B093600318
:10467000BF91AF919F918F910F900FBE0F901F90A0
:104680001895CF92DF92EF92FF920F931F932FB75F
:10469000F89440915D0350915E0360915F037091C7
:1046A00060032FBF6A017B01EE24FF248C0120E010
:1046B00030E0C016D106E206F30610F4415051096D
:1046C0009A01281B390BC9011F910F91FF90EF90A0
:1046D000DF90CF9008952FB7F89480915D0390916B
:1046E0005E03A0915F03B09160032FBF08951F92F6
:1046F0000F920FB60F9211248F939F93AF93BF9396
:1047000080919402811113C080915D0390915E03AA
:10471000A0915F03B09160034196A11DB11D8093EC
:104720005D0390935E03A0935F03B0936003BF911A
:10473000AF919F918F910F900FBE0F901F90189582
:1047400020911301222321F020918F0227FD04C024
:10475000FC013296089619C0262F26952695269597
:104760002E31C0F4FC01E20FF11D677081E090E092
:1047700001C0880F6A95EAF7809592818923828328
:1047800008953196E817F90729F020812613F9CF0B
:104790001082F7CF089520911301222321F0209158
:1047A0008F0227FD05C0FC0132962FEF30E019C0C3
:1047B000262F2695269526952E3120F5FC01E20F11
:1047C000F11D677081E090E001C0880F6A95EAF7FB
:1047D0009281892B828308952F3F39F03F5F3630D5
:1047E00041F041914613F8CF0DC04111F7CF232F6F
:1047F000F5CF2F3F39F0FC01E20FF11D27FDFA95AF
:1048000062830895089580E090E00E94A82621E048
:104810008D3E9E4F09F020E0822F08956DEE7EEFD1
:1048200080E090E00E94CC2660E082E090E00E9470
:10483000AE2660E083E090E00E94AE26109259031D
:1048400010925A0310925B0310925C0360E084E0C4
:1048500090E00E94AE2660E085E090E00E94AE26E7
:1048600060E086E090E00E94AE266FEF87E090E087
:104870000E94AE2640E050E0BA0188E090E00E943D
:10488000C02660E08DE090E00E94AE2640E050E05F
:10489000BA0188E190E00E94C02660E087E190E0E4
:1048A0000E94AE2640E050E0BA018FE090E00E9406
:1048B000C02640E050E0BA0183E190E00C94C026AD
:1048C00080915803811110925803089590915703D5
:1048D00080914B02892B20915603982F922B909315
:1048E000C202809158038823D9F0892B8093C20299
:1048F00080911301882331F080918F0287FF02C0DD
:104900008EE101C086E0E4ECF2E090E0815028F016
:1049100021912223D9F39F5FF9CF91110E94602446
:10492000E0919202F09193023097A9F080911301E7
:10493000882359F080918F0287FF07C08091C202BF
:104940008093C30285E08093C2020280F381E02D50
:1049500082EC92E009940895BF92CF92DF92EF9299
:10496000FF920F931F93CF93DF938C01C090590355
:10497000D0905A03E0905B03F0905C038091510368
:1049800090915203A0915303B0915403C82AD92A9D
:10499000EA2AFB2ACFE1D0E0D701C6010C2E04C0E1
:1049A000B695A795979587950A94D2F780FF07C08B
:1049B000BC2EB8018C2F0E94F509019719F421979C
:1049C00058F7B12C8B2DDF91CF911F910F91FF9054
:1049D000EF90DF90CF90BF900895CF93DF93EC01DD
:1049E0000E94AC24BE010E94F509DF91CF91089589
:1049F000292F220F920F990F890F682F66956695C0
:104A00006695982F977085E0689FB001112440E06B
:104A100050E080E0FA01E60FF71FE65EFC4F2081D0
:104A200030E0092E02C0369527950A94E2F72170EE
:104A30003327042E01C0220F0A94EAF7822B4F5F1E
:104A40005F4F4530510531F70895292F220F920FFE
:104A5000990F890FA82FA695A695A695877051E066
:104A600001C0550F8A95EAF785E0A89FD00111246F
:104A700020E030E070E0F901EA0FFB1FE65EFC4F3A
:104A80004081CB01022E02C0969587950A94E2F7E9
:104A900081709927819584278523842780832F5FC0
:104AA0003F4F2530310539F708950F931F93AB0120
:104AB000BC01CB01AA27BB270097A105B10511F0C6
:104AC000E0E103C0DB01CA01E0E0092F1A2F2B2F20
:104AD0003327011511052105310519F0E85FD901CA
:104AE000C8018C019D01F4E036952795179507952F
:104AF000FA95D1F7011511052105310519F0EC5F83
:104B0000D901C8018C019D01F2E0369527951795D2
:104B10000795FA95D1F7011511052105310519F011
:104B2000EE5FD901C801B695A79597958795892B12
:104B30008A2B8B2B09F0EF5F56985E9825982D985D
:104B400026982E9827982F988E2F90E0FC01319769
:104B5000E730F105A8F4E855FF4F0C94532A259A45
:104B60002D9A0EC0259A2D9A269A2E9A09C0259A1A
:104B70002D9A04C0259A2D9A269A2E9A279A2F9A12
:104B80004093510350935203609353037093540323
:104B90001F910F910C9420210F931F9341E050E03F
:104BA00060E070E004C0440F551F661F771F8A95B0
:104BB000D2F74095509560957095809151039091F2
:104BC0005203A0915303B09154038A019B0108231F
:104BD00019232A233B23C901B8011F910F910C947B
:104BE0005525209155038095822380935503982F56
:104BF000977079F430E0482F082E000C550B2417DD
:104C0000350739F08595859585950E94CC251092BC
:104C1000550308950F931F9341E050E060E070E06A
:104C200004C0440F551F661F771F8A95D2F78091E5
:104C3000510390915203A0915303B09154038A0100
:104C40009B01082B192B2A2B3B2BC901B8011F9163
:104C50000F910C9455256093590370935A038093D8
:104C60005B0390935C030C94202180911903909135
:104C7000E802891719F08F5F8770FBCF0895809144
:104C8000E70282958F7009F054C08091E402882376
:104C900009F44FC080911903A091E8026091E202EB
:104CA0007091E3024091E5025091E602B6E08A1766
:104CB00009F43FC090E041155105C1F17F3F11F467
:104CC0006F3FA1F1B89FF001B99FF00D1124E7519A
:104CD000FD4F218172132AC02081621327C02281D7
:104CE000211124C0238134812417350710F4215069
:104CF0003109241B350B283C3105C0F42091E70213
:104D00002F7020612093E70226E0289FF001299F61
:104D1000F00D1124E251FD4F80818F7080618083FE
:104D200082EE92E00E94FF0D0C943526019687706A
:104D3000BECF0895F999FECF92BD81BDF89A99270B
:104D400080B50895A6E1B0E044E050E00C94D4268C
:104D5000A8E1B0E042E050E00C94D426262FF99967
:104D6000FECF92BD81BDF89A019700B4021639F0CA
:104D70001FBA20BD0FB6F894FA9AF99A0FBE08959B
:104D80000396272F0E94AF260E94AE26252F0E9451
:104D9000AF26242F0C94AF260196272F0E94AF2612
:104DA0000C94AE26DC01CB01FC01F999FECF06C0C4
:104DB000F2BDE1BDF89A319600B40D9241505040D9
:104DC000B8F708955058BB27AA270E94FA260C94DA
:104DD000A5280E94972838F00E949E2820F039F4D8
:104DE0009F3F19F426F40C946D280EF4E095E7FB30
:104DF0000C946728E92F0E94B62858F3BA17620767
:104E000073078407950720F079F4A6F50C94D82849
:104E10000EF4E0950B2EBA2FA02D0B01B9019001D5
:104E20000C01CA01A0011124FF27591B99F0593F19
:104E300050F4503E68F11A16F040A22F232F342F61
:104E40004427585FF3CF469537952795A795F040AF
:104E50005395C9F77EF41F16BA0B620B730B840BC4
:104E6000BAF09150A1F0FF0FBB1F661F771F881F7C
:104E7000C2F70EC0BA0F621F731F841F48F48795D4
:104E800077956795B795F7959E3F08F0B0CF9395C6
:104E9000880F08F09927EE0F9795879508950E943F
:104EA00063270C94A5280E949E2858F00E949728FA
:104EB00040F029F45F3F29F00C94672851110C94BD
:104EC000D9280C946D280E94B62868F39923B1F371
:104ED000552391F3951B550BBB27AA276217730720
:104EE000840738F09F5F5F4F220F331F441FAA1FB4
:104EF000A9F335D00E2E3AF0E0E832D09150504070
:104F0000E695001CCAF72BD0FE2F29D0660F771F1D
:104F1000881FBB1F261737074807AB07B0E809F003
:104F2000BB0B802DBF01FF2793585F4F3AF09E3F88
:104F3000510578F00C9467280C94D9285F3FE4F36E
:104F4000983ED4F3869577956795B795F7959F5FCB
:104F5000C9F7880F911D9695879597F90895E1E017
:104F6000660F771F881FBB1F621773078407BA0776
:104F700020F0621B730B840BBA0BEE1F88F7E095D1
:104F8000089529F416F00C9467280C94D8280C94F2
:104F90006D280E94BE28A8F39638A0F707F80F9254
:104FA000E8942BE33AEA48EB5FE70E946B290F9203
:104FB0000F920F924DB75EB70F920E942129EEE536
:104FC000F1E00E9470284F915F91EF91FF91E5957C
:104FD000EE1FFF1F49F0FE57E0684427EE0F441F05
:104FE000FA95E1F74195550B0E94EB280F9007FECB
:104FF0000C94DF2808950E94BE2888F09F5798F0EF
:10500000B92F9927B751B0F0E1F0660F771F881FCD
:10501000991F1AF0BA95C9F714C0B13091F00E94E7
:10502000D828B1E008950C94D828672F782F8827C6
:10503000B85F39F0B93FCCF3869577956795B3950E
:10504000D9F73EF490958095709561957F4F8F4F7D
:105050009F4F0895E89409C097FB3EF49095809582
:10506000709561957F4F8F4F9F4F9923A9F0F92F2E
:1050700096E9BB279395F695879577956795B795AC
:10508000F111F8CFFAF4BB0F11F460FF1BC06F5F92
:105090007F4F8F4F9F4F16C0882311F096E911C0A4
:1050A000772321F09EE8872F762F05C0662371F0C5
:1050B00096E8862F70E060E02AF09A95660F771FD9
:1050C000881FDAF7880F9695879597F9089597F9CD
:1050D0009F6780E870E060E008959FEF80EC08959E
:1050E000DF93CF931F930F93FF92EF92DF927B0199
:1050F0008C01689406C0DA2EEF010E946829FE0137
:10510000E894A5912591359145915591A6F3EF012C
:105110000E94FA26FE019701A801DA9469F7DF9050
:10512000EF90FF900F911F91CF91DF910895002490
:105130000A941616170618060906089500240A94FC
:1051400012161306140605060895092E0394000C82
:1051500011F4882352F0BB0F40F4BF2B11F460FF11
:1051600004C06F5F7F4F8F4F9F4F089557FD90583A
:10517000440F551F59F05F3F71F04795880F97FB1B
:10518000991F61F09F3F79F08795089512161306D5
:105190001406551FF2CF4695F1DF08C01616170604
:1051A0001806991FF1CF8695710561050894089539
:1051B000E894BB2766277727CB0197F908959B01D1
:1051C000AC0160E070E080E89FE30C944F270C9402
:1051D00067280C94CA290E94BE28D8F39923C9F3E2
:1051E000940F511DA3F39150504094F059F088232F
:1051F00032F0660F771F881F91505040C1F79E3FD5
:1052000051052CF7880F911D9695879597F908956C
:105210005F3FACF0983E9CF0BB27869577956795ED
:10522000B79508F4B1609395C1F7BB0F58F711F427
:1052300060FFE8CF6F5F7F4F8F4F9F4FE3CF0C949E
:10524000D928FA01DC01AA0FBB1F9B01AC01BF5793
:1052500028F4222733274427507820C0B75190F4F0
:10526000AB2F0024469537952795011CA395D2F3C3
:10527000002071F0220F331F441FB395DAF30ED0D4
:105280000C94E22661307105A0E88A07B94630F433
:105290009B01AC016627772788279078309621F00C
:1052A000208331834283538308950E9468290C949C
:1052B000A5280E94972838F00E949E2820F0952368
:1052C00011F00C9467280C946D2811240C94D928A3
:1052D0000E94B62870F3959FC1F3950F50E0551FBB
:1052E000629FF001729FBB27F00DB11D639FAA273B
:1052F000F00DB11DAA1F649F6627B00DA11D661F8A
:10530000829F2227B00DA11D621F739FB00DA11DAA
:10531000621F839FA00D611D221F749F3327A00D64
:10532000611D231F849F600D211D822F762F6A2F00
:1053300011249F5750409AF0F1F088234AF0EE0F65
:10534000FF1FBB1F661F771F881F91505040A9F792
:105350009E3F510580F00C9467280C94D9285F3F3C
:10536000E4F3983ED4F3869577956795B795F795CE
:10537000E7959F5FC1F7FE2B880F911D9695879546
:1053800097F908959F930E94DA290F9007FCEE5F2A
:105390000C94032A9F3F31F0915020F48795779524
:1053A0006795B795880F911D9695879597F90895FC
:1053B0000C946D280E94BE28D8F3E894E0E0BB2747
:1053C0009F57F0F02AED3FE049EC06C0EE0FBB0F0F
:1053D000661F771F881F28F0B23A62077307840799
:1053E00028F0B25A620B730B840BE3959A9572F70F
:1053F000803830F49A95BB0F661F771F881FD2F74D
:1054000090480C94CC29EF93E0FF07C0A2EA2AED64
:105410003FE049EC5FEB0E94FA260E94A5280F901E
:10542000039401FC9058E6E8F1E00C94172A9F934E
:105430008F937F936F93FF93EF939B01AC010E9437
:105440005529EF91FF910E9470282F913F914F9124
:105450005F910C945529AA1BBB1B51E107C0AA1FE1
:10546000BB1FA617B70710F0A61BB70B881F991F05
:105470005A95A9F780959095BC01CD01089597FBA9
:10548000072E16F4009407D077FD09D00E942B2A2E
:1054900007FC05D03EF4909581959F4F0895709537
:1054A00061957F4F0895EE0FFF1F0590F491E02D59
:1054B0000994CF93DF938230910510F482E090E05D
:1054C000E0916303F091640320E030E0C0E0D0E0BD
:1054D000309711F14081518148175907C0F04817A2
:1054E000590761F482819381209719F09B838A8305
:1054F0002BC0909364038093630326C0211531056C
:1055000019F04217530718F49A01BE01DF01EF01A9
:105510000280F381E02DDCCF2115310509F1281B34
:10552000390B2430310590F412968D919C9113978C
:105530006115710521F0FB019383828304C0909370
:10554000640380936303FD01329644C0FD01E20FC2
:10555000F31F81939193225031092D933C933AC0CC
:105560002091610330916203232B41F420910201C9
:105570003091030130936203209361032091000175
:10558000309101012115310541F42DB73EB740910D
:10559000040150910501241B350BE0916103F0914A
:1055A0006203E217F307A0F42E1B3F0B28173907FD
:1055B00078F0AC014E5F5F4F2417350748F04E0F6F
:1055C0005F1F50936203409361038193919302C0E4
:1055D000E0E0F0E0CF01DF91CF9108950F931F93AA
:1055E000CF93DF93009709F48CC0FC0132971382AC
:1055F000128200916303109164030115110581F477
:1056000020813181820F931F2091610330916203C9
:105610002817390779F5F0936203E093610371C0AD
:10562000D80140E050E0AE17BF0750F412962D911C
:105630003C911397AD012115310509F1D901F3CF43
:105640009D01DA013383228360817181860F971F68
:105650008217930769F4EC0128813981260F371FDF
:105660002E5F3F4F318320838A819B819383828386
:10567000452B29F4F0936403E093630342C013962F
:10568000FC93EE931297ED01499159919E01240FDD
:10569000351FE217F30771F480819181840F951F04
:1056A000029611969C938E938281938113969C937C
:1056B0008E931297E0E0F0E0D80112968D919C91C4
:1056C0001397009719F0F8018C01F6CF8D919C91FA
:1056D00098012E5F3F4F820F931F209161033091FD
:1056E00062032817390769F4309729F4109264038C
:1056F0001092630302C0138212821093620300931C
:105700006103DF91CF911F910F910895FC014150EA
:10571000504030F001900616D1F73197CF0108952F
:0A572000882799270895F894FFCF19
:10572A0000006503200001191A1B1C1D1E1F2021E1
:10573A00220102012000CC22CF22CB22A81B6A1B05
:10574A000001020202020606060909090909090FEF
:10575A000F0F0F0F0F1515151819191919191919EE
:10576A001919192324000D010D020D030D040D054D
:10577A000D000C010C020C030C040C050C000B01AF
:10578A000B020B030B040B050B000A010A020A03A6
:10579A000A040A050A00090109020903090409059C
:1057AA00090008010802080308040805080007019F
:1057BA000702070307040705070006010602060396
:1057CA00060406050600050105020503050405058C
:1057DA00050004010402040304040405040003018F
:1057EA000302030303040305030002010202020386
:1057FA00020402050200010101020103010401057C
:0E580A00010000010002000300040005000080
:00000001FF
